{
  "contractName": "GradualPonzi",
  "abi": [
    {
      "constant": true,
      "inputs": [
        {
          "name": "",
          "type": "address"
        }
      ],
      "name": "balances",
      "outputs": [
        {
          "name": "",
          "type": "uint256"
        }
      ],
      "payable": false,
      "stateMutability": "view",
      "type": "function"
    },
    {
      "constant": true,
      "inputs": [
        {
          "name": "",
          "type": "uint256"
        }
      ],
      "name": "investors",
      "outputs": [
        {
          "name": "",
          "type": "address"
        }
      ],
      "payable": false,
      "stateMutability": "view",
      "type": "function"
    },
    {
      "constant": true,
      "inputs": [],
      "name": "MINIMUM_INVESTMENT",
      "outputs": [
        {
          "name": "",
          "type": "uint256"
        }
      ],
      "payable": false,
      "stateMutability": "view",
      "type": "function"
    },
    {
      "inputs": [],
      "payable": false,
      "stateMutability": "nonpayable",
      "type": "constructor"
    },
    {
      "payable": true,
      "stateMutability": "payable",
      "type": "fallback"
    },
    {
      "constant": false,
      "inputs": [],
      "name": "withdraw",
      "outputs": [],
      "payable": false,
      "stateMutability": "nonpayable",
      "type": "function"
    }
  ],
  "bytecode": "0x608060405234801561001057600080fd5b5060003390806001815401808255809150509060018203906000526020600020016000909192909190916101000a81548173ffffffffffffffffffffffffffffffffffffffff021916908373ffffffffffffffffffffffffffffffffffffffff16021790555050610486806100866000396000f3fe608060405260043610610062576000357c0100000000000000000000000000000000000000000000000000000000900463ffffffff16806327e235e3146102045780633ccfd60b146102695780633feb5f2b146102805780638a4660fe146102fb575b66038d7ea4c6800034101515156100e1576040517f08c379a00000000000000000000000000000000000000000000000000000000081526004018080602001828103825260188152602001807f496e766573746d656e742062656c6f77206d696e696d756d000000000000000081525060200191505060405180910390fd5b60008080549050348115156100f257fe5b04905060008090505b60008054905081101561019a578160016000808481548110151561011b57fe5b9060005260206000200160009054906101000a900473ffffffffffffffffffffffffffffffffffffffff1673ffffffffffffffffffffffffffffffffffffffff1673ffffffffffffffffffffffffffffffffffffffff1681526020019081526020016000206000828254019250508190555080806001019150506100fb565b5060003390806001815401808255809150509060018203906000526020600020016000909192909190916101000a81548173ffffffffffffffffffffffffffffffffffffffff021916908373ffffffffffffffffffffffffffffffffffffffff1602179055505050005b34801561021057600080fd5b506102536004803603602081101561022757600080fd5b81019080803573ffffffffffffffffffffffffffffffffffffffff169060200190929190505050610326565b6040518082815260200191505060405180910390f35b34801561027557600080fd5b5061027e61033e565b005b34801561028c57600080fd5b506102b9600480360360208110156102a357600080fd5b8101908080359060200190929190505050610411565b604051808273ffffffffffffffffffffffffffffffffffffffff1673ffffffffffffffffffffffffffffffffffffffff16815260200191505060405180910390f35b34801561030757600080fd5b5061031061044f565b6040518082815260200191505060405180910390f35b60016020528060005260406000206000915090505481565b6000600160003373ffffffffffffffffffffffffffffffffffffffff1673ffffffffffffffffffffffffffffffffffffffff1681526020019081526020016000205490506000600160003373ffffffffffffffffffffffffffffffffffffffff1673ffffffffffffffffffffffffffffffffffffffff168152602001908152602001600020819055503373ffffffffffffffffffffffffffffffffffffffff166108fc829081150290604051600060405180830381858888f1935050505015801561040d573d6000803e3d6000fd5b5050565b60008181548110151561042057fe5b906000526020600020016000915054906101000a900473ffffffffffffffffffffffffffffffffffffffff1681565b66038d7ea4c680008156fea165627a7a723058203a06db9a4dfa43fadb86df813fc4975977b8f600fba45e80d8a6eb1f0819064f0029",
  "source": "pragma solidity ^0.5.0;\n\ncontract GradualPonzi {\n    // set up two state variables and a constant\n    address[] public investors;\n    mapping (address => uint) public balances;\n    uint public constant MINIMUM_INVESTMENT = 1e15; // 0.001 e\n\n    constructor() public {\n        // message sender is the first investor (who also doesn't have to send a min)\n        investors.push(msg.sender);\n    }\n\n    function () external payable {\n        require(msg.value >= MINIMUM_INVESTMENT, \"Investment below minimum\");\n        uint investorCut = msg.value / investors.length;\n        for(uint i = 0; i < investors.length; i++) {\n            balances[investors[i]] += investorCut;\n        }\n        // msg sender comes in with 0 amount,\n        // his investments is dispursed across the other ones\n        investors.push(msg.sender);\n    }\n\n    // because more payout to handle, better to use a withdrawal function, 'on-demand'\n    // and an internal balance\n    // preventing 'freeloaders' by imposing minimum investment\n    function withdraw() external {\n        uint payout = balances[msg.sender];\n        balances[msg.sender] = 0;\n        msg.sender.transfer(payout);\n    }\n}",
  "sourcePath": "/Users/dev/dev/playing/simple-ponzi/contracts/GradualPonzi.sol",
  "compiler": {
    "name": "solc",
    "version": "0.5.0+commit.1d4f565a.Emscripten.clang"
  },
  "schemaVersion": "3.0.9",
  "updatedAt": "2019-05-09T20:44:38.792Z",
  "devdoc": {
    "methods": {}
  },
  "userdoc": {
    "methods": {}
  }
}