{
  "contractName": "SimplePonzi",
  "abi": [
    {
      "constant": true,
      "inputs": [],
      "name": "currentInvestment",
      "outputs": [
        {
          "name": "",
          "type": "uint256"
        }
      ],
      "payable": false,
      "stateMutability": "view",
      "type": "function"
    },
    {
      "payable": true,
      "stateMutability": "payable",
      "type": "fallback"
    }
  ],
  "bytecode": "0x6080604052600060015534801561001557600080fd5b50610169806100256000396000f3fe608060405260043610610041576000357c0100000000000000000000000000000000000000000000000000000000900463ffffffff168063b2667cd01461010c575b6000600a600b6001540281151561005457fe5b049050803411151561006557600080fd5b60008060009054906101000a900473ffffffffffffffffffffffffffffffffffffffff169050336000806101000a81548173ffffffffffffffffffffffffffffffffffffffff021916908373ffffffffffffffffffffffffffffffffffffffff160217905550346001819055508073ffffffffffffffffffffffffffffffffffffffff166108fc349081150290604051600060405180830381858888f19350505050505050005b34801561011857600080fd5b50610121610137565b6040518082815260200191505060405180910390f35b6001548156fea165627a7a72305820d18b83058de55d9c04735e14ccf3e609c35084a418976cf6e4eac983fafa31170029",
  "source": "pragma solidity ^0.5.0;\n\ncontract SimplePonzi {\n    // if no one ever tops the bid of 'currentInvestor',\n    // they will be the one to lose the investment\n    address payable currentInvestor;\n    // the investment they stand to lose\n    uint public currentInvestment = 0;\n\n    // payable callback function; gets executed by directly\n    // sending ether to the contract\n    function () external payable {\n        // new investments must be 10% greater than current, current * 1.1 (expressed in fraction)\n        uint minimumInvestment = (currentInvestment * 11) / 10;\n        require(msg.value > minimumInvestment);\n\n        // document new investor\n        address payable previousInvestor = currentInvestor;\n        currentInvestor = msg.sender;\n        currentInvestment = msg.value;\n\n        // payout previous investor\n\n        // .transfer would allow anyone to block our contract\n        // send forwards only 2300 gas stipend, so we are safe from re-entrancy attack\n        // detering the attackers by imposing a monetary penalty for attempting a malicious tx\n        // developers get penalized for their errors (after all, security is paramount)\n        previousInvestor.send(msg.value);\n    }\n}",
  "sourcePath": "/Users/dev/dev/playing/simple-ponzi/contracts/SimplePonzi.sol",
  "compiler": {
    "name": "solc",
    "version": "0.5.0+commit.1d4f565a.Emscripten.clang"
  },
  "schemaVersion": "3.0.9",
  "updatedAt": "2019-05-09T20:44:19.320Z",
  "devdoc": {
    "methods": {}
  },
  "userdoc": {
    "methods": {}
  }
}